:020000040800F2
:100000008887042481040008E938010831280108A0
:10001000E1380108592A0008E99D010800000000A4
:100020000000000000000000000000006143010823
:10003000D936000800000000013D0108C143010855
:100040009B0400089B0400089B0400089B04000814
:100050009B0400089B0400089B0400089B04000804
:100060009B0400089B0400089B040008A92B0008BF
:10007000B92B0008C92B0008D92B0008E92B000870
:10008000F92B0008092C00089B0400080937000818
:10009000193700089B0400089B0400089B04000813
:1000A0009B0400089B0400089B0400089B040008B4
:1000B0009B0400089B0400089B0400089B040008A4
:1000C0009B0400089B0400089B0400089B04000894
:1000D00069410108696201089B0400089B0400084B
:1000E000E13600089B040008000000009B040008A3
:1000F0009B0400089B0400089B040008192C0008BE
:100100009B0400089B0400089B0400089B04000853
:100110009B040008E14E01089B0400089B040008B2
:10012000292C0008392C0008492C00089B040008E1
:100130009B0400089B0400089B0400089B04000823
:1001400000000000000000000000000000000000AF
:100150009B0400089B0400089B0400089B04000803
:100160009B0400089B0400089B0400089B040008F3
:100170009B040008613901089B040008000000008E
:100180009B0400089B040008F14E01089B04000832
:100190009B0400089B0400089B0400089B040008C3
:1001A0009B0400089B0400089B040008000000005A
:1001B0009B0400089B0400089B0400089B040008A3
:1001C0009B0400089B0400080000000000000000E1
:1001D00000000000000000009B0400080000000078
:1001E000000000000000000000000000000000000F
:1001F00000000000000000009B0400089B040008B1
:100200009B0400089B040008000000009B040008F9
:100210009B0400089B040008194601089B04000881
:100220009B040008000000009B0400080000000080
:100230009B0400089B040008000000009B040008C9
:100240009B0400089B0400089B0400089B04000812
:100250009B0400089B0400089B0400089B04000802
:100260009B0400089B0400089B0400089B040008F2
:100270009B0400089B0400089B0400080000000089
:100280009B0400089B0400089B0400089B040008D2
:10029000000000009B0400089B0400080000000010
:1002A000000000009B0400089B0400089B04000859
:1002B000596201089B0400089B04000829370008C4
:1002C0009B0400089B0400089B04000800F002F84F
:1002D00000F0C7F814A696E8000CB244B344DA451F
:1002E00001D100F0BEF8BAE80F000FA696E8300082
:1002F000A5EB040504EB0607AAEB0704A7F1010729
:100300004FEA15154FEA3414A4F10104AC4201D3AD
:1003100000F0A7F813F0010F18BFFB1A43F0010318
:1003200000F001F8DBE71847C8E00300F8E003003D
:100330000A4410F8014B14F00F0508BF10F8015BD8
:10034000240908BF10F8014B6D1E05D010F8013BC1
:100350006D1E01F8013BF9D1641E03D0641E01F843
:10036000015BFBD19142E4D370470000704700006D
:100370000023002400250026103A28BF78C1FBD8AE
:10038000520728BF30C148BF0B6070476E2900F08C
:100390000F84702900F0538566293CF03885652963
:1003A0003CF0358567293CF0328561293CF0318588
:1003B00003681B0A28BF41F08001692900F0BC8353
:1003C000642900F0B983752900F0B6836F2900F025
:1003D000E184782900F01F85E92900F07B84E42975
:1003E00000F07884F52900F07584EF2900F0DE84B0
:1003F000F82900F01E850368DB0928BF41F0800161
:10040000632901F0AB82732901F0B082E32901F086
:10041000CD82F32901F0D282002070471FB53CF055
:10042000E9FC9DE8030000F02FFE01F0FDFB040055
:10043000002000213CF0C0FC401C60600020002136
:100440003CF0A4FCE06001F0AFFB01F0BBFA00F06F
:100450003DFA1FBD10B5002001F074FB01F01BFB3D
:1004600010BD01F0B3FB1146FFF7D8FF38F0E0FCF8
:1004700001F070FD03B4FFF7EDFF03BC37F0B0FDF2
:100480000948804709480047FEE7FEE7FEE7FEE728
:10049000FEE7FEE7FEE7FEE7FEE7FEE70448054964
:1004A000054A064B70470000D9440108CD020008F8
:1004B0008847002488870424884704248847042424
:1004C000704753EA020C00F069802DE9F04B4FF0C1
:1004D0000006002B1FBFB3FA83F503FA05F424FAD4
:1004E00005F65E4012BF1643B2FA82F502FA05F431
:1004F000C5F120051EBF22FA05FC44EA0C04203594
:1005000056EA044C4FEA144418BF641C4FF000082C
:100510004FF00009904271EB030C39D3002919BF49
:10052000B1FA81F701FA07F6B0FA80F700FA07F698
:10053000C7F120071EBF20FA07FC46EA0C06203749
:10054000B6FBF4FCA7EB0507103F07F01F0BCBF140
:1005500020062CFA06F60CFA0BFB44BFB346002625
:10056000202FA4BF5E464FF0000B5BEA060C08BFCD
:100570004FF0010B19EB0B0948EB0608ABFB027CB3
:1005800006FB02CC0BFB03CCC01B71EB0C01C1E7DB
:100590000B46024641464846BDE8F08B13B508437A
:1005A00018BF4FF0FF300146AFF30080BDE81C409C
:1005B000704700007CB51D4616460C00009007D021
:1005C0004142A14202D32044401E01E04FF0FF30DF
:1005D000064B7B442A4669460190304600F001FBF9
:1005E000002C02D0009A002111707CBD330600005F
:1005F0000B460146184600F0FDBC10B5431C02E056
:1006000010F8011B71B18107FAD14FF0013202C815
:100610008C1A8C4314EAC211F9D0C01A0A0603D00E
:10062000C01E10BDC01A10BD0A0401D0801E10BD2E
:100630000902FCD0401E10BD032A40F2308010F0A9
:10064000030C00F0158011F8013BBCF1020F62446D
:1006500098BF11F801CB00F8013B38BF11F8013BFE
:10066000A2F1040298BF00F801CB38BF00F8013BAB
:1006700011F0030300F06780083AC0F0088051F8D9
:10068000043B083A51F804CBA0E80810F5E7121D26
:100690005CBF51F8043B40F8043BAFF30080D20745
:1006A00024BF11F8013B11F801CB48BF11F8012B11
:1006B00024BF00F8013B00F801CB48BF00F8012B34
:1006C0007047431A28BF9A427FF6B6AF10441144D0
:1006D000032A40F2268010F0030F1EBF11F8013DDF
:1006E000521E00F8013D10F0030F7FF4F6AF11F039
:1006F000030300F06D80083AC0F00B8051F8043D10
:10070000083A51F804CD40F8043D40F804CDFFF715
:10071000F3BF121D5CBF51F8043D40F8043DAFF338
:100720000080D20724BF11F8013D11F801CD48BF68
:1007300011F8012C24BF00F8013D00F801CD48BF9D
:1007400000F8012C704710B5203AC0F00B80B1E8DA
:100750001850A0E81850B1E81850A0E81850203AF6
:10076000BFF4F5AF5FEA027C24BFB1E81850A0E8FF
:10077000185044BF18C918C0BDE810405FEA827C19
:1007800024BF51F8043B40F8043B08BF7047D20730
:1007900028BF31F8023B48BF11F8012B28BF20F8D1
:1007A000023B48BF00F8012B7047431A28BF9A420A
:1007B0007FF6C9AF1044114410F0030F1EBF11F8AB
:1007C000013D521E00F8013D10F0030F7FF4F6AF1B
:1007D000103AC0F00A8010B531E9185020E91850DD
:1007E000103ABFF4F9AFBDE81040530724BF31E918
:1007F000081020E9081044BF51F8043D40F8043DBA
:1008000012F0030F08BF7047D20728BF31F8023D2E
:1008100048BF11F8012C28BF20F8023D48BF00F85E
:10082000012C704702F0FF0343EA032242EA02422E
:1008300000F024B84FF000020429C0F0128010F03C
:10084000030C00F01B80CCF1040CBCF1020F18BFAC
:1008500000F8012BA8BF20F8022BA1EB0C0100F03F
:100860000DB85FEAC17C24BF00F8012B00F8012B12
:1008700048BF00F8012B70474FF0000200B5134647
:1008800094469646203922BFA0E80C50A0E80C50B0
:10089000B1F12001BFF4F7AF090728BFA0E80C5061
:1008A00048BF0CC05DF804EB890028BF40F8042B5A
:1008B00008BF704748BF20F8022B11F0804F18BFC7
:1008C00000F8012B704770477047704708487CB5A7
:1008D0007844009007487844009C0546019004E065
:1008E0002046016808448047241DAC42F8D17CBDF5
:1008F00078DC0300AEDC0300704770B5064600F0FC
:100900009FFB056806F10B0020F00704B4429CBF72
:10091000002070BD2B466A68BAB11068A04210D39F
:1009200004F1080188423CBF5068586007D3516801
:10093000101941601168091B016058601460101D96
:1009400070BD13465268002AE7D12146284600F0C0
:1009500087FB0028DED170BD70B50446051F00F08E
:100960006FFB0068002C14BF446870BD002C18BFDA
:10097000AC423CBF20466468F8D301680A18AA421A
:1009800018BF456003D12A680546114401602868F4
:100990004119A1421CBF6C6070BD6168696021682B
:1009A0000844286070BD2DE9F04791460C4680460A
:1009B00000F046FB0768604234EA000001D1042CD5
:1009C00002D20520BDE8F087601E40F0070609F15D
:1009D0000B0020F007054D4539D93B467A6882B3B4
:1009E0001468101D404206EA000C644525D9A4EBAA
:1009F0000C00854221D8BCF1000F0BD010460168D5
:100A00006244A1EB0C01116041685160C0F800C064
:100A100058600346116805F10800814205D350195A
:100A2000491B016015605860034652F8040F586076
:100A30000020C8F80020BDE8F08713465268002A5D
:100A4000CED12946384600F00BFB0028C5D1062040
:100A5000BDE8F08710B500F0FBFA006810BD10B5D6
:100A6000044600F0F5FA046010BD0B460146184636
:100A700000F080BF70B5044685690068C10601D5E5
:100A8000302600E02026C00707D070BDD4E9012140
:100A900030469047206A401C20626D1EF6D570BD1E
:100AA00070B5044685690078C00707D170BDD4E9E8
:100AB000012120209047206A401C20626D1EF6D53F
:100AC00070BD09684A0501D540B27047C905FCD51B
:100AD00000B2704709684A0501D5C0B27047C90520
:100AE000FCD580B2704770B50C460546012A05D08A
:100AF0002878800600D5EA69002302E0012305E09A
:100B00005B1C934202D2E05C0028F9D1A869E61888
:100B1000C01AA861286A184428622846FFF7AAFF6D
:100B200004E0D5E9012114F8010B9047B442F8D351
:100B30002846FFF7B5FF70BD2DE9F04106460024B9
:100B400010687529314616A510D0FFF7BAFF0028A6
:100B500002DA404213A507E031688A0701D512A5E1
:100B600002E0490704D511A5012401E0FFF7B2FF17
:100B700000210A2206F1240709E0B0FBF2FCB0FBD9
:100B8000F2F302FB1C00303078541846491C002850
:100B9000F3D123462A463046BDE8F04100F0EEBAD4
:100BA000000000002D0000002B00000020000000CD
:100BB00011680268006A530501D508700AE0D30580
:100BC00001D5088006E0130603D5C217C1E900026B
:100BD00000E008600120704701694A1C0261087842
:100BE000704700B58FB0CDE901310021059105496D
:100BF0007944CDE903101146684600F02BF90FB097
:100C000000BD0000E5FFFFFFD1E900239A4202D2B8
:100C1000531C0B60107070472DE9FF5F15468A4624
:100C20000446DFF8AC80F8440027D8E900103E46BF
:100C3000CDE9001010E03AF816106A4602A800F05C
:100C40005DFF411C07D02178890603D5E269391878
:100C500091420DD80744761C2078800602D5E069C1
:100C6000B84205DDAE42E6DB3AF816000028E2D1D4
:100C7000A069C01BA0612046FFF7FCFED8E9001068
:100C8000CDE90010002017E03AF818106A4602A8D3
:100C900000F034FFB0F1FF3F81460BD000250DF18D
:100CA000080B05E0D4E901211BF8050090476D1CF5
:100CB0004D45F7D308F10100B0428046E4DB206ADD
:100CC000384420622046FFF7EBFEBDE8FF9F00009E
:100CD00066C303002DE9F0418046D21D22F00702D1
:100CE0000025D2E90002F52915A614D0011E72F1E3
:100CF000000106DA0023D0EB030063EB020211A629
:100D000008E0D8F800108B0701D50FA602E04907CC
:100D100001D50EA601251146002408F1240704E0A0
:100D200000F0E7F930323A55641C50EA0102F7D17D
:100D30002B46324621464046BDE8F04100F01EBA3F
:100D4000000000002D0000002B000000200000002B
:100D500030B4002100F1240408E002F00705D208B5
:100D6000303542EA4372DB086554491C52EA0305F8
:100D7000F3D10468002310A2250708D504F020044D
:100D80000C4304D0C46901230CA2641EC46130BCAE
:100D900000F0F4B910B5044621461068FFF79AFE3A
:100DA00002462046BDE810400023D1E7D21D22F0C4
:100DB0000701D1E90023CBE700000000300000006C
:100DC000F0B40D460188090502D5214C7C4402E0AF
:100DD0001F4C7C440E34002100F1240608E002F090
:100DE0000F071209E75D42EA03721B097754491C99
:100DF00052EA0307F3D102780023120704D5702DBD
:100E000006D009B1022311342246F0BC00F0B6B975
:100E100001231034F8E770B504460D4621461068EA
:100E2000FFF758FE024629462046BDE870400023E1
:100E3000C6E7D21D22F00703D3E90023C0E7036809
:100E4000126843F0200303600823C3610023B7E75F
:100E5000C8C103002DE9F05F894604464FF0000A3F
:100E6000DFF874B1FB44C0F820A02046E168884751
:100E7000002874D0252806D0D4E901219047206AA3
:100E8000401C2062F1E700265F462046E168884763
:100E90002028054607DB312D05D2781910F8200CE3
:100EA00008B10643F1E7B00701D526F00406C4F8FF
:100EB0001CA00027C4F818A02A2D09D028463BF012
:100EC0001DFF38B304EB8708303DC8F8185019E00F
:100ED00059F8041B204604EB87029161E1688847BA
:100EE000012F054618D1E069002820DA26F02006F7
:100EF0001DE0D8F8180000EB800005EB400030380A
:100F0000C8F818002046E168884705463BF0F6FE21
:100F10000028EED1012F0AD02E2D08D12046E168FD
:100F200088477F1C0546022F46F02006C4DBA069D7
:100F3000002803DA404246F00106A061F00701D024
:100F400026F010066C2D0BD0682D09D04C2D39D011
:100F50006A2D35D0742D35D07A2D33D016E038E097
:100F6000E1682F4620468847B842054609D16C2FD4
:100F700026D04FF48060E168064320468847054646
:100F800004E06C2F1AD04FF4807006430DB3A5F126
:100F90004100192802D8203546F400664A46294601
:100FA000204626604E46FFF7F1F980B101280BD0AC
:100FB000F61D26F0070000F1080956E74020E4E797
:100FC0008020D8E70020D6E706F104094DE728463F
:100FD00052E7206ABDE8F09F58C1030010B5002019
:100FE00000F0E8FDFFF736FABDE81040012036F0CA
:100FF000F7BF00002DE9F041074615460E461020C8
:10100000FFF77BFC040013D06760C4E90265094860
:10101000AFF3008000F018F8016821600649046011
:10102000002008600348AFF300800020BDE8F08195
:101030000120FBE71400002410000024002070476A
:10104000004870477C03002400487047AC0300242C
:10105000004870477403002470477047704770471A
:1010600038B504460A4600206946AFF300800028E0
:1010700008BF38BD02460099204600F0D9FD012086
:1010800038BD012000F093BFF8B5AFF300800546EE
:1010900000200C460C2000BF0646A819A0420DD91E
:1010A000324669460020AFF30080070008BF00F019
:1010B0007EFF0098A04218BF0546C419FFF7C0FF85
:1010C00005600746F01D20F007004619284600F08D
:1010D0000AF8B44208BFF8BDA21B31463868BDE823
:1010E000F84000F0A5BD00210160416070470C2070
:1010F000704730B5B0F10A0271F100034FEA900E6B
:101100004EEA817EB0EB0E0061EB91014FEA101EBA
:101110004EEA017E10EB0E0041EB11114FEA102E4A
:101120004EEA016E10EB0E0041EB11214FEA104E1A
:101130004EEA014E10EB0E0041EB1141401841F117
:1011400000014FEAD00040EA41704FEAD1014FEA76
:10115000810444EA907410EB800544EB01046D199E
:1011600044EB0404521BA3414FF0000348BF0A3272
:1011700000D530BD401C41F1000130BD2DE9F047E4
:101180000D4699469246044600F1240801688806F7
:1011900004D5E06921F01001216000E00120A8429F
:1011A00001DD471B00E00027A1697A1902EB090065
:1011B000081AA0612078C00602D42046FFF75AFC26
:1011C000002608E0D4E901211AF806009047206AB9
:1011D000401C761C20624E45F4DB2078C0060AD500
:1011E0002046FFF747FC06E0D4E901213020904774
:1011F000206A401C2062381EA7F10107F4DC07E0DA
:10120000D4E9012118F805009047206A401C2062AB
:10121000281EA5F10105F3DC2046FFF741FC2078EC
:10122000000602D50220BDE8F0870120FBE72DE98A
:10123000FF4F0C461E464FF0FF378BB0D2E900013E
:10124000DDF860800A908A46C1F30A5505B93D462B
:10125000002108464FF00000BAF1000F00F44000F2
:1012600005DA00EB80004FF4400101EA50004FEA3C
:101270009059B9F1010F00DDB9460A9850EA4A00C9
:101280000ED044F61050A5F2FF3545432F14B8F1A7
:10129000000F1ED07542291E1EDDC9F100021CE0A0
:1012A000B8F1010F4FF0000001D0302103E0F2430C
:1012B00005E02154401CB042FBDB304600220021F7
:1012C00021540B99C1F80880C1E900200FB0BDE896
:1012D000F08FBD1B6D1CDEE74A4600DA694206A8A6
:1012E00000F000FD06AB93E8070003AB83E80700BE
:1012F00050460A993AF0FCF98DE80700A0F5005035
:101300001F3800900398002D0ADD42F21F014A4663
:101310000844002303A9039068463AF065FC09E0FD
:10132000A0F500504A461F38002303A903906846E1
:101330003AF06FFC8DE807000004000C03D04FF07A
:10134000FF30410800E01046B8F1000F03D0002242
:10135000009215461EE0751E05D4FFF7CAFE303216
:1013600062556D1EF9D5B3460122084302D0002212
:101370007F1C04E02078302801D100227F1E002A43
:10138000099784D01DE0112D07DAFFF7B2FE303245
:1013900062556D1C50EA0102F5D1084302D0009855
:1013A000C8B10EE00021681E05E0235C625C635456
:1013B0002254401E491C8142F7DBAB46A81B401E4D
:1013C0000990002004F80B000B98099AC0F80880D7
:1013D000C0E9002B7AE711264FF0000857E72DE906
:1013E000F04F88460446D21D22F0070191B0D1E9A2
:1013F0000001CDE90A013AF055FD02460B98C00FF5
:1014000001D02D2007E02068810701D52B2002E0C4
:10141000202101EAC000032A099001D0072A05DB38
:1014200003464146204600F01DFC0BE12078800673
:1014300001D5E06900E00620B8F1650F814606D0CD
:10144000B8F1660F18D0B8F1670F70D131E0002005
:10145000B9F1110F009001DB112301E009F1010343
:101460000AAA01A90CA8FFF7E2FEDDE90C7000262C
:1014700009F10105834647E001204B4600904FF0FB
:1014800000470AAA01A90CA8FFF7D1FEDDE90DB0BB
:101490000C995D46002610B909F101000D18B9EB51
:1014A000050003D4C0F1FF3609F10105A5EB0900E1
:1014B0002BE0B9F1010F01DA4FF001090020B9F179
:1014C000110F0090484601DD112300E003460AAAEF
:1014D00001A90CA8FFF7ABFEDDE90C704D46002614
:1014E0008346207800070AD4AB4500DA5D4601A8A0
:1014F000012D04DD411911F8011C302907D04F4599
:1015000002DA17F1040F04DA012082460FE06D1EA3
:10151000EEE7002F02DCED1B3E4403E0781CA842FE
:1015200000DD7D1CB81B00F1010A4FF00047207858
:10153000000703D4AA4501DB4FF0FF3A0021B7F1C1
:10154000004F0DF143088DF8431024D002202B23C7
:10155000002F01DA7F422D230A21021EA0F1010093
:1015600000DC5FB197FBF1FC97FBF1F201FB1C7C07
:1015700017460CF1300C08F801CDEEE7A8F1010098
:1015800003702188090501D5452100E06521A0F1FE
:10159000010800F8011C09980FA9A1EB0807FF1D1D
:1015A00000B10120411901EBEA70A1693844081A21
:1015B000401EA0612078C00602D42046FFF75AFAE8
:1015C000099828B1D4E901219047206A401C206283
:1015D0002078C00622D52046FFF74CFA1EE0002EE8
:1015E00004DBB34502DD01A8805D00E03020D4E9D2
:1015F00001219047206A401C2062761CAAF101005C
:101600005FEA000A0AD100F00FFBC0680168405C85
:10161000D4E901219047206A401C2062281EA5F1D0
:101620000105DCDC07E0D4E9012118F8010B904743
:10163000206A401C2062381EA7F10107F3DC204617
:10164000FFF72EFA032011B041E600002DE9F04F1C
:1016500004460D46D21D22F0070089B0D0E900975C
:10166000484639463AF01EFC0246F80F01D02D23B9
:1016700007E02068810701D52B2302E0202101EA41
:10168000C0038DF820300BB1012000E00020032AB8
:10169000824601D0072A04DB2946204600F0E2FA00
:1016A0003FE12078800601D40D2500E0E569C7F30D
:1016B0000A560D2D49DA00214FEA175B08464FF014
:1016C0000000002F00F4400007DA00EB80004FF428
:1016D000400100EBD07001EA60008115012901DDB5
:1016E0004FF0FF3100224FEA850CBCF1180F06D3F2
:1016F0001346ACF118004FF08052C24003E04FF4A3
:10170000801323FA0CF30CF10C0CBCF1200F04D362
:10171000ACF1200C09FA0CF001E007FA0CF00029FA
:101720004FF0004801DD18B90FE00ED140450CD351
:1017300019EB02095F4121B9404502D19F4329EAD3
:101740000209BBEB175F00D0761C2088000502D58C
:101750007B48784402E07A487844193808AA302354
:1017600002F80A30037C0AF10101002E0AF1020A94
:1017700053546A4602DC4FF0300101E04FF0310172
:101780004FF001088DF8001002D0A6F2FF3603E0FA
:1017900059EA470100D06B4E002D02DC2178090781
:1017A00004D54FF002082E218DF80110C446002107
:1017B0000BE0C7F303433F01C35C491C6D1E02F8F5
:1017C0000830052908F1010801DA002DF1DC0021BB
:1017D0000CE000EB1973491C1B786D1E082902F8F8
:1017E00008304FEA091908F1010801DA002DF0DC90
:1017F00021688B0602D516E0A8F10108E04505DD59
:1018000002EB080313F8013C302BF5D0B8F1000FC0
:1018100009DD02EB080313F8013C2E2B03D1090765
:1018200001D4A8F10108002D05DD3E2102F80810C1
:101830006D1E08F10108407C002E02F8080008F136
:10184000010804DA2D20764202F8080002E02B207D
:1018500002F808000A214FF47A70864208F1010864
:101860000BDB96FBF0F3303302F8083096FBF0F315
:1018700008F1010800FB136601E0642E0CDB642014
:1018800096FBF0F3303302F8083096FBF0F308F1E2
:10189000010800FB136601E00A2E06DB96FBF1F05F
:1018A000303002F8080008F1010896FBF1F001FB66
:1018B0001060303002F80800A16908F1010808EB57
:1018C000050202EB0A00081AA0612078C00602D4C3
:1018D0002046FFF7CFF8216A08AE01EB0A0020622C
:1018E00004E0D4E9012116F8010B9047BAF1010A8E
:1018F000F7D22078C00602D52046FFF7BBF86E4627
:1019000009E016F8010B3E280FD0D4E901219047D9
:10191000206A401C2062B8F10108F2D22046FFF78D
:10192000BFF809B00320BDE8F08F206A2844206288
:1019300003E0D4E90121302090476D1EEBD3F8E796
:10194000BDB8030002FCFFFF10B5436913B1AFF34C
:10195000008001E0FFF7C7F8012010BD127800F108
:1019600024010A7000224A700122EDE711684FF04D
:10197000FF32E9E7074B70B50D467B44FFF731F9BD
:101980000446284600F020FA10B14FF0FF3070BD39
:10199000204670BD6B74030010B5436913B1AFF3FB
:1019A000008001E0FFF738F9012010BD128800F136
:1019B000240182840022C2840122EDE711684FF0E5
:1019C000FF32E9E710B542485421FEF755FF414880
:1019D0005421FEF751FF40485421FEF74DFF3F4987
:1019E0003B483C4A3F4B08603D490A603A49196010
:1019F000531C0365481C1065012008653B48344AA8
:101A000039A1784400F008FA20B9384878440A38F7
:101A100000F0C6FA37482F4A35A1784400F0FCF9A7
:101A200020B9344878440A3800F0BAFA32482A4AD1
:101A30002FA1784400F0F0F920B92F4878440A38F3
:101A400000F0AEFA40232248DC000021224600F0DC
:101A5000BFF920B125487844543800F0A1FA1D4858
:101A600022464023002100F0B3F920B121487844F8
:101A7000543800F095FA184822461023002100F04F
:101A8000A7F9002806D01C487844BDE81040563815
:101A900000F086BA10BD104870B5006D20F001044A
:101AA0000B4800F031FA0B4800F02EFA0A4800F01B
:101AB0002BFA09E0206D20F00105204600F024FA01
:101AC0002046FEF749FF2C46002CF3D170BD0000E4
:101AD00078020024CC020024200300240400002407
:101AE000080000240C0000247200000020B603004F
:101AF000770000000CB60300F8B503002DE9F041B3
:101B000016460C46054600F087F8036893F8010175
:101B1000012807D0FF2C12D8185D80B101202C704D
:101B2000BDE8F081D3F807013246214603F20713DE
:101B3000C7182846BC46BDE8F041002360474FF077
:101B4000FF30EDE72DE9F84306461548AFF3008076
:101B5000FFF77AFA134F8146E8464D4616E026B164
:101B6000E068B04201D0254610E0206828600C48AB
:101B7000C7F80080AFF30080D4E901018847084826
:101B8000AFF300803968414500D04D462C68002CE9
:101B9000E5D1002038600248AFF30080BDE8F8834B
:101BA00014000024100000240148FFF747BA000089
:101BB0001400002410B500F0DBF9BDE8104000F07F
:101BC000D2B9000000487047740300247546FFF73F
:101BD000F9FFAE4605006946534620F007008546EA
:101BE00018B020B5FEF75AFCBDE820404FF00006C3
:101BF0004FF000074FF000084FF0000BAC46ACE888
:101C0000C009ACE8C009ACE8C009ACE8C00921F0E3
:101C100007018D467047000010B500F005F8001D63
:101C200010BD00BF95B10300004870479403002425
:101C3000034640688C46002818BF88423CBF0346D4
:101C40004068F8D318681844884207D00CF10300A4
:101C500020F00700001D411A521A0146081D0A60B3
:101C6000FEF77ABE2DE9F0411F46044603260168BF
:101C7000072A01F4006004DB08B116A505E016A5EB
:101C800003E008B115A500E015A521F010002060C3
:101C9000A069C01EA0610FB1401EA0612046FEF7E2
:101CA000E9FE4FB1D4E9012138469047206A401C33
:101CB0002062C01C206206E0206AFAE7D4E9012114
:101CC00015F8010B9047761EF8D22046FEF7E8FE85
:101CD000BDE8F0814E414E006E616E00494E4600F7
:101CE000696E66002DE9F047814616468AB0354890
:101CF00078440DC88DE80D0032487844801C03AC50
:101D00000DC884E80D0041F69B300844372190FB54
:101D1000F1F290FBF1F5A5F1800501FB12041B3CEB
:101D200002D56442012000E00020DFF898A0804640
:101D30000027FA44AAF1BE0A0EE0E0070AD03246B4
:101D4000684607EB470101230AEB810139F061FF87
:101D50008DE8070064107F1C002CEED1194F7F44E2
:101D6000AE3F19E0E80715D007EB04100DF1180A93
:101D700090E80E008AE80E00C068F04201D1981980
:101D800008903246012306A903A839F042FF03ABAD
:101D900083E807006D10641C002DE3D14FF00103B0
:101DA00032466946B8F1000F03A802D039F01CFF93
:101DB00001E039F02EFFC9E90001C9F808200AB096
:101DC000BDE8F087BCB30300007B00F080007047E3
:101DD00070B5C468A50713D0650211D4B2F5807F31
:101DE00009D0B2F5007F06D0B2F5806F08D101238B
:101DF00000F1240106E05D1E6FF07F46B54201D37D
:101E0000012070BD0161C361416024F47061114320
:101E1000C160002070BD00002DE9F0410C4616465F
:101E2000070047D0104600F06FF82078611C612849
:101E30000AD0722802D077283CD102E00125002484
:101E400005E00225042402E0082448F2020511F806
:101E5000010B2B2806D0622809D011F8010C742838
:101E60000AD00BE045F0030544F00204EFE745F02B
:101E7000040544F00104EAE744F010043846214622
:101E800000F08EFA411C15D00021316171604FF4D1
:101E90000071F560F1617061200704D530460222BF
:101EA000002100F0BFF8306D40F001003065304691
:101EB000BDE8F0810020FBE72DE9F0410D46064624
:101EC000104C206DC10704D0410804D020F001045B
:101ED000F7E722460EE05420FEF70FFD07000ED074
:101EE000206D47F001010843542120653846FEF774
:101EF000C3FC3A4629463046BDE8F0418CE7002055
:101F0000D6E70000780200242DE9F04704464FF0A0
:101F1000FF380026C568D4E90497A80718D02046E2
:101F200000F03CF9384600F053F8002800DA464645
:101F3000280502D54846FEF70FFD4C212046FEF746
:101F40009BFC206D20F0010020653046BDE8F08745
:101F50004046FBE710B50446AFF300802046BDE8DD
:101F60001040FEF787BA002801D036F039B8704724
:101F700010B5002102A000F055F9012010BD0000AD
:101F8000534947414252543A2041626E6F726D612B
:101F90006C207465726D696E6174696F6E0000000B
:101FA00010B500F059F9BDE81040FFF7DCBF10B5DF
:101FB00000F06CF9BDE81040FFF7D5BF0EB5CDE9D4
:101FC0000001FEF71AFB029069460120ABBE0EBD70
:101FD00008B5694600900220ABBE08BD1FB58DE86C
:101FE000070069460520ABBE04B010BD1FB58DE8E3
:101FF0000F0069460620ABBEF6E708B569460090BB
:102000000920ABBE08BD1CB5CDE9000169460A2018
:10201000ABBE1CBD704708B5694600900C20ABBE36
:1020200008BD00002DE9F041044616460D464769FB
:10203000007B80072ED03846FFF7DFFF50BB3EB352
:10204000012E02D0022E25D104E0204600F086F9B0
:1020500005441DE03846FFF7DEFFE168002841F047
:102060001001E16005DA204600F058F80120BDE8D3
:10207000F081C9030BD56268E16A914200D811462C
:10208000A26911442269891A814200DD084605448B
:10209000002D01DA0220EAE7E16A6068E268814225
:1020A00006D29103E06203D522F4003141F0100220
:1020B000A6690027AE4213DCE16A814201D90B46D2
:1020C00000E0034603EB060C2369ACEB030CAC45C4
:1020D00006DD814201D98C4600E084469C4505D14D
:1020E000A760276042F02000A5620DE0AD1BE66905
:1020F000AE1B8142A66000D90846C01A281A20608B
:102100005819606022F0200003490840E060002078
:1021100084F84870ABE70000BFCFD7FFC16821F457
:10212000001141F08001C1600021816001607047B1
:102130002DE9F74F15460C464FF0FF3B3848D7685E
:10214000D2F814A0074209D05046A969FFF75BFFF7
:10215000002819DB3248C0430740EF604FF00049C8
:102160006FF000484C4501D3464600E026460099F2
:102170003B4650463246FFF731FFA96920F0004246
:10218000B21A1144A96128B12846FFF7C7FF584683
:10219000BDE8FE8FA41BE5D10020F9E770B5044629
:1021A0000569C06A6168884200D80846E16821F480
:1021B0002011E160C90312D5A84208D02246411B74
:1021C0002846FFF7B5FF10B14FF0FF3070BD00207B
:1021D000E562C4E90150E06820F48030E06000204E
:1021E00070BD10B50446C06820F02000E060A16A10
:1021F000A06988420DD02046FFF7D0FFE06820F4A8
:10220000405040F01000E060A06AA0612069E062E8
:10221000606044F24001E0688843E06010BD000067
:102220001000020070B505460C460A2000E06D1C47
:1022300035F0DAFE35B128780028F8D102E0641CC8
:1022400035F0D2FE14B120780028F8D1BDE87040F6
:102250000A2035F0C9BE000010B5014602A0FFF704
:10226000E1FF012010BD000053494752545245443C
:102270003A2052656469726563743A2063616E271F
:1022800074206F70656E3A200000000010B50128C0
:1022900005D0002103A0FFF7C5FF012010BD09A153
:1022A000F8E7000053494752544D454D3A204F75C9
:1022B00074206F662068656170206D656D6F72793E
:1022C000000000003A2048656170206D656D6F72F6
:1022D0007920636F7272757074656400000000008D
:1022E00030B44FF0013C50F8042BCCFA52F451F8C2
:1022F000043BD51A20D1FCB950F8042BCCFA52F487
:1023000051F8043BD51A17D1B4B950F8042BCCFAC4
:1023100052F451F8043BD51A0ED16CB950F8042B85
:10232000CCFA52F451F8043BD51A05D1002CDAD07E
:1023300030BC4FF00000704729BAB1FA81F111F0BA
:102340001801D1F120008440F2D1CA40CB4012F0F4
:10235000FF0213F0FF0330BCD01A704710B50146DE
:10236000C268900703D0900607D5886A0AE0FEF796
:102370006FFE01210160881E10BD8B6948681844FA
:102380000B69C01A91F848301BB191F84910401AF6
:1023900010BD1103FCD50028FADD401E10BD000061
:1023A00082B001900091002002B070470000000050
:1023B00080B584B003900398006842F20001C4F233
:1023C0000201884209D0FFE70398006842F2001139
:1023D000C4F20201884209D1FFE742F20830C4F298
:1023E0000200006810F4403F09D129E046F20830AD
:1023F000C5F60200006810F4403F21D0FFE70BF063
:102400005BFF0290039840680190B0F5803F0AD0CE
:10241000FFE70198B0F5003F05D0FFE70198B0F560
:10242000403F07D00AE00398C1880298B0FBF1F062
:10243000029004E002988008029000E0FFE75FE06D
:102440004FF40020002109F043FF029003984068F8
:102450000090B0F5802F32D0FFE70098B0F5002F44
:102460002DD0FFE70098B0F5402F28D0FFE7009867
:10247000B0F5801F23D0FFE70098B0F5A01F1ED055
:10248000FFE70098B0F5C01F19D0FFE70098B0F53E
:10249000E01F1FD0FFE70098B0F5001F1ED0FFE738
:1024A0000098B0F5101F1DD0FFE70098B0F5201F71
:1024B0001CD0FFE70098B0F5301F1BD01EE003983A
:1024C00041686FF0010000EA51410298B0FBF1F061
:1024D000029014E002980009029010E0029840096E
:1024E00002900CE002988009029008E00298C0096E
:1024F000029004E00298000A029000E0FFE7FFE784
:10250000029840080290029845F61061C0F25F01FF
:10251000884209D8FFE703980068806820F440707B
:102520000399096888602EE002984BF62041C0F2BA
:10253000BE0188420AD8FFE703980068806801213D
:1025400061F309200399096888601BE0029847F647
:102550004001C0F27D1188420AD8FFE70398006865
:102560008068022161F3092003990968886008E006
:1025700003980068806840F4407003990968886097
:10258000FFE7FFE7FFE704B080BD000000000000A8
:1025900080B58AB0089007910020059007980490B4
:1025A0000898006810F030FA02900898006810F05F
:1025B000EBF90190029828B9FFE70198002800F094
:1025C000A880FFE708980068C0688001002836D519
:1025D000FFE70898407E012831D1FFE70898007E88
:1025E00001282CD1FFE701200490FFE7089800683C
:1025F000006800F040010020B0EB911F1AD1FFE706
:1026000005984DF60041C0F20C0188420ED3FFE759
:102610000899086E40F0100008660899486E40F06E
:102620000100486601208DF8270076E0059801300A
:102630000590DBE70898016840200860FFE70498F0
:10264000022813D0FFE70898006810F0DDF960B1A8
:10265000FFE70898006810F0B7F928B9FFE7089875
:10266000006810F045FAFFE7FFE7FFE7049801284C
:1026700013D0FFE70898006810F086F960B1FFE713
:102680000898006810F0A0F928B9FFE708980068DA
:1026900010F082F9FFE7FFE7FFE7049800900228B7
:1026A00007D0FFE70098032806D1FFE70C2003902E
:1026B00005E00820039002E004200390FFE707F004
:1026C00093FE0690FFE70898006880680399084227
:1026D0001ED0FFE707F088FE0699401A062816D399
:1026E000FFE7089800688068039908420ED0FFE76A
:1026F0000899086E40F0100008660899486E40F08E
:102700000100486601208DF8270006E0FFE7DAE7C0
:10271000FFE700208DF82700FFE79DF827000AB0AB
:1027200080BD00000000000080B582B001900198DB
:10273000806B00900098006E10F0500F4AD1FFE7B8
:102740000099086E40F40070086600980068006800
:102750000007002821D5FFE70098006810F064F911
:10276000D0B1FFE700980068C0688004002812D448
:10277000FFE70099086E20F4807008660098006EEC
:10278000C004002806D4FFE70099086E40F001005D
:102790000866FFE7FFE7FFE718E000980068C068F9
:1027A000800790B9FFE70099086E20F480700866F2
:1027B0000098006EC004002806D4FFE70099086E58
:1027C00040F001000866FFE7FFE7FFE7009802F02E
:1027D00087F910E00098006EC006002804D5FFE7D6
:1027E000009802F0A5F905E00098806DC16C019891
:1027F0008847FFE7FFE702B080BD0000000000004F
:1028000080B582B001900198806B00900099086EAD
:1028100040F0400008660099486E40F004004866A9
:10282000009802F085F902B080BD000000000000B1
:1028300080B582B001900198806B0090009802F002
:1028400073F902B080BD000080B584B00290029898
:10285000006810F0B9F800900298006810F0BCF819
:1028600000284BD0FFE70098002847D1FFE70298E7
:102870000068806800F00D00012809D1FFE7029888
:10288000006810F019F802980168032008600DE054
:102890000299086E40F0100008660299486E40F0F8
:1028A0000100486601208DF80F002BE007F09CFD29
:1028B0000190FFE7029800688068C007E8B1FFE771
:1028C00007F092FD0199401A032815D3FFE70298FB
:1028D00000688068C00770B1FFE70299086E40F099
:1028E000100008660299486E40F001004866012019
:1028F0008DF80F0006E0FFE7DCE7FFE700208DF82A
:102900000F00FFE79DF80F0004B080BD000000003D
:1029100080B586B004900498006810F05DF8002837
:1029200040F09280FFE70498006880683F21C8F279
:10293000000108420ED0FFE70499086E40F0100035
:1029400008660499486E40F00100486601208DF841
:1029500017007DE0049800680FF0CAFF07F044FDFF
:10296000039004980168012042F20002C4F20202BE
:10297000914201900CD0FFE7049800684DF6007179
:10298000CBF6FD710844B0FA80F040090190FFE7F2
:102990000198C10746F20030C5F6020000291CBFAD
:1029A00042F20030C4F202000FF0D6FF0290049809
:1029B000006842F20011C4F20201884206D1FFE72A
:1029C00042F20000C4F20200009003E004980068A4
:1029D0000090FFE7009804990968884203D0FFE758
:1029E000029880BBFFE7FFE7049800680068C00713
:1029F00040BBFFE7049800680FF0EEFF28B9FFE73F
:102A0000049800680FF074FFFFE707F0EDFC0399EE
:102A1000401A032815D3FFE7049800680068C00730
:102A200070B9FFE70499086E40F010000866049939
:102A3000486E40F00100486601208DF8170007E05D
:102A4000FFE7D1E7FFE7FFE700208DF81700FFE77A
:102A50009DF8170006B080BDFFE7FEE7000000000C
:102A600084B08DF80F000291ADF806209DF80F009C
:102A70000146009123281DD80099DFE801F01213C8
:102A80001415161B1B1B1B1B1B1B1B1B1B1B1B1BA8
:102A90001B1B1B1B1B1B1B1B1B1B1B1B1B1B17188D
:102AA000191A08E007E006E005E004E003E002E0B0
:102AB00001E000E0FFE7002004B0704700000000E4
:102AC000002070470000000080B582B042F60C7014
:102AD000C2F20040009040F6FC71C2F200410022B8
:102AE000019213F071FF009840F2FC71C2F20041B4
:102AF00013F04AFF019802B080BD00000000000002
:102B000080B584B00390029103980299096816F089
:102B10005BFF039942F60C70C2F20040019013F083
:102B200033FF019813F0D4FE002004B080BD0000F4
:102B300083B0029001918DF8032000208DF80200EF
:102B40009DF9020003B0704780B586B00490ADF8DF
:102B50000E1000208DF80D0042F60C70C2F20040FD
:102B6000D0F8BC0202900298D0F8140220B1FFE71E
:102B700001208DF8170013E00499BDF80E2042F6ED
:102B80000C70C2F20040019013F01EFF019814F087
:102B900027F88DF80D009DF80D008DF81700FFE760
:102BA0009DF8170006B080BD80B543F24030C2F2F8
:102BB000004003F0F5FD80BD80B543F23040C2F225
:102BC000004003F0EDFD80BD80B543F2A840C2F2A5
:102BD000004003F0E5FD80BD80B543F2C820C2F29D
:102BE000004003F0DDFD80BD80B543F2B830C2F295
:102BF000004003F0D5FD80BD80B543F28860C2F28D
:102C0000004003F0CDFD80BD80B543F21060C2F2FC
:102C1000004003F0C5FD80BD80B543F22050C2F2F4
:102C2000004003F0BDFD80BD80B543F29850C2F274
:102C3000004003F0B5FD80BD80B543F20070C2F2E4
:102C4000004003F0ADFD80BD80B543F27870C2F264
:102C5000004003F0A5FD80BD83B00290029801689A
:102C600001201022C4F202029142009000F0A380E1
:102C7000FFE70298016801202822C4F20202914273
:102C8000009000F09880FFE7029801680120402240
:102C9000C4F202029142009000F08D80FFE702989A
:102CA000016801205822C4F202029142009000F013
:102CB0008280FFE70298016801207022C4F20202BC
:102CC0009142009077D0FFE70298016801208822A6
:102CD000C4F20202914200906DD0FFE702980168B1
:102CE0000120A022C4F202029142009063D0FFE7CB
:102CF000029801680120B822C4F2020291420090B9
:102D000059D0FFE702980168012040F21042C4F256
:102D10000202914200904ED0FFE702980168012024
:102D200040F22842C4F202029142009043D0FFE7F1
:102D300002980168012040F24042C4F2020291422E
:102D4000009038D0FFE702980168012040F2584215
:102D5000C4F20202914200902DD0FFE70298016870
:102D6000012040F27042C4F202029142009022D04F
:102D7000FFE702980168012040F28842C4F2020293
:102D80009142009017D0FFE702980168012040F2BD
:102D9000A042C4F20202914200900CD0FFE70298D8
:102DA00000684FF64831CBF6FD710844B0FA80F068
:102DB00040090090FFE70098C00740B3FFE7029882
:102DC000007810384AF6AB21CAF6AA21A0FB011000
:102DD00000090190019800F007014DF24610C0F67D
:102DE0000300405C0299C8650198042807D3FFE7F7
:102DF00002990868042262F30900886506E00299D6
:102E0000086840F2FF3290438865FFE705E00299C9
:102E1000086820F0FF008865FFE70298806D03B026
:102E2000704700000000000084B003900398006821
:102E3000019003980168012045F20842C5F602029C
:102E4000914200904ED0FFE703980168012045F2BF
:102E50001C42C5F602029142009043D0FFE703985E
:102E60000168012045F23042C5F60202914200900D
:102E700038D0FFE703980168012045F24442C5F6C7
:102E80000202914200902DD0FFE7039801680120D3
:102E900045F25842C5F602029142009022D0FFE767
:102EA00003980168012045F26C42C5F60202914286
:102EB000009017D0FFE703980168012045F2804297
:102EC000C5F60202914200900CD0FFE7039800681B
:102ED0004AF66C31CAF2FD710844B0FA80F040093C
:102EE0000090FFE70098C00710B3FFE70398007851
:102EF00008384CF6CD41CCF6CC41A0FB01100009BE
:102F00000290029945F60000C5F6020000EB810030
:102F100003990866039945F68000C5F602004866E5
:102F2000029800F01F01012088400399886635E06F
:102F30000398007810384AF6AB21CAF6AA21A0FB04
:102F4000011000090290019840F2B841C4F2020158
:102F500088420CD8FFE7019840F21041C4F2020108
:102F6000884204D3FFE7029808300290FFE70299F5
:102F700040F60000C4F2020000EB810003990866ED
:102F8000039940F68000C4F202004866029800F0FF
:102F90001F010120884003998866FFE704B070474D
:102FA00083B002900298007901900198002800F007
:102FB0008A80FFE70198082800F28580FFE70298E1
:102FC0000168012045F20842C5F6020291420090D4
:102FD0004ED0FFE702980168012045F21C42C5F679
:102FE00002029142009043D0FFE70298016801205D
:102FF00045F23042C5F602029142009038D0FFE718
:1030000002980168012045F24442C5F6020291424D
:1030100000902DD0FFE702980168012045F2584248
:10302000C5F602029142009022D0FFE702980168A3
:10303000012045F26C42C5F602029142009017D081
:10304000FFE702980168012045F28042C5F60202BE
:10305000914200900CD0FFE7029800684AF66C316C
:10306000CAF2FD710844B0FA80F040090090FFE711
:103070000098C00780B1FFE7019945F6FC00C5F64E
:10308000020000EB81000299C866029945F64010E3
:10309000C5F6020008670FE0019940F6FC00C4F293
:1030A000020000EB81000299C866029940F64010C8
:1030B000C4F202000867FFE70198411E0120884022
:1030C00002994867FFE703B0704700000000000066
:1030D00085B0049000208DF80F000498806918BB1B
:1030E000FFE70498806A029003281BD80299DFE862
:1030F00001F0020D0218049890F82F00C00720B1CB
:10310000FFE701208DF80F00FFE70CE00498C06A8C
:10311000B0F1C07F04D1FFE701208DF80F00FFE779
:1031200001E000E0FFE747E004988069B0F5005F48
:1031300026D1FFE70498806A019003281ED80199E0
:10314000DFE801F00206021101208DF80F0016E001
:10315000049890F82F00C00720B1FFE701208DF8F8
:103160000F00FFE70BE00498C06AB0F1C07F04D104
:10317000FFE701208DF80F00FFE700E0FFE71AE00E
:103180000498806A0090032804D3FFE7009803287E
:1031900004D00EE001208DF80F000BE0049890F8A9
:1031A0002F00C00720B1FFE701208DF80F00FFE7D7
:1031B00000E0FFE7FFE7FFE79DF80F0005B070476D
:1031C00089B008900791069205930898806D049045
:1031D0000898806D03900898016801201022C4F2BD
:1031E00002029142029000F00381FFE70898016813
:1031F00001202822C4F202029142029000F0F880DD
:10320000FFE70898016801204022C4F202029142BF
:10321000029000F0ED80FFE7089801680120582235
:10322000C4F202029142029000F0E280FFE70898A7
:10323000016801207022C4F202029142029000F063
:10324000D780FFE70898016801208822C4F20202B3
:103250009142029000F0CC80FFE7089801680120BD
:10326000A022C4F202029142029000F0C180FFE766
:10327000089801680120B822C4F20202914202902B
:1032800000F0B680FFE708980168012040F2104284
:10329000C4F202029142029000F0AA80FFE708986F
:1032A0000168012040F22842C4F2020291420290D9
:1032B00000F09E80FFE708980168012040F240423C
:1032C000C4F202029142029000F09280FFE7089857
:1032D0000168012040F25842C4F202029142029079
:1032E00000F08680FFE708980168012040F27042F4
:1032F000C4F20202914202907AD0FFE70898016876
:10330000012040F28842C4F20202914202906FD042
:10331000FFE708980168012040F2A042C4F20202CF
:103320009142029064D0FFE708980168012040F2C2
:10333000B842C4F202029142029059D0FFE70898C5
:103340000168012045F20842C5F60202914202904E
:103350004ED0FFE708980168012045F21C42C5F6EF
:1033600002029142029043D0FFE7089801680120D1
:1033700045F23042C5F602029142029038D0FFE792
:1033800008980168012045F24442C5F602029142C4
:1033900002902DD0FFE708980168012045F25842BD
:1033A000C5F602029142029022D0FFE70898016818
:1033B000012045F26C42C5F602029142029017D0FC
:1033C000FFE708980168012045F28042C5F6020235
:1033D000914202900CD0FFE7089800684AF66C31E1
:1033E000CAF2FD710844B0FA80F040090290FFE78C
:1033F0000298C00770B1FFE70898416E806E486080
:103400000898C06E28B1FFE70898016F406F4860C8
:10341000FFE7FFE70898016801201022C4F20202CA
:103420009142019000F0A380FFE708980168012015
:103430002822C4F202029142019000F09880FFE736
:103440000898016801204022C4F2020291420190D2
:1034500000F08D80FFE70898016801205822C4F22F
:1034600002029142019000F08280FFE70898016813
:1034700001207022C4F202029142019077D0FFE74E
:103480000898016801208822C4F20202914201904A
:103490006DD0FFE7089801680120A022C4F2020263
:1034A0009142019063D0FFE7089801680120B8229B
:1034B000C4F202029142019059D0FFE708980168D6
:1034C000012040F21042C4F20202914201904ED01B
:1034D000FFE708980168012040F22842C4F2020286
:1034E0009142019043D0FFE708980168012040F223
:1034F0004042C4F202029142019038D0FFE708989E
:103500000168012040F25842C4F202029142019047
:103510002DD0FFE708980168012040F27042C4F204
:1035200002029142019022D0FFE708980168012031
:1035300040F28842C4F202029142019017D0FFE7A4
:1035400008980168012040F2A042C4F202029142B0
:1035500001900CD0FFE7089800684FF64831CBF691
:10356000FD710844B0FA80F040090190FFE701982E
:10357000C00750B3FFE70898C06D00F01F013F205F
:1035800088400499886008980168086820F48020C1
:10359000086005980899096848600898806840287C
:1035A00009D1FFE706980899096888600798089983
:1035B0000968C86008E00798089909688860069853
:1035C00008990968C860FFE782E00898016801204F
:1035D00045F20842C5F60202914200904ED0FFE744
:1035E00008980168012045F21C42C5F6020291428A
:1035F000009043D0FFE708980168012045F230426F
:10360000C5F602029142009038D0FFE708980168A1
:10361000012045F24442C5F60202914200902DD0AD
:10362000FFE708980168012045F25842C5F60202FA
:103630009142009022D0FFE708980168012045F2EE
:103640006C42C5F602029142009017D0FFE708983D
:103650000168012045F28042C5F6020291420090C5
:103660000CD0FFE7089800684AF66C31CAF2FD7189
:103670000844B0FA80F040090090FFE70098C007C6
:1036800020B3FFE70898C06D00F01F0101208840BB
:103690000399486005980899096848600898806807
:1036A000402809D1FFE706980899096888600798BB
:1036B00008990968C86008E007980899096888604F
:1036C000069808990968C860FFE700E0FFE7FFE790
:1036D00009B07047000000007047000000000000C3
:1036E00080B54FF4806006F05FFC4FF4805006F028
:1036F0005BFC80BD0000000081B0EFF3108072B66B
:103700000090FFE7FEE7000080B543F2F070C2F2E0
:10371000004005F029FD80BD80B543F69000C2F25F
:10372000004005F021FD80BD80B543F63010C2F2A7
:10373000004005F019FD80BD84B002900298406BF6
:10374000009002980068D0F884004FF6FC7188431E
:10375000009940EA810002990968C1F88400029842
:103760000068D0F8840020F47F00029A1168926B00
:1037700040EA0240C1F884000298816B0098084436
:10378000009002980068D0F888006FF38F000099CD
:1037900040EA810002990968C1F88800029800682F
:1037A000D0F8880020F4FE00029A1168D26B40EA3B
:1037B0000240C1F888000298C16B009800EB4100FC
:1037C000009002980068D0F8A0006FF38F00009975
:1037D00040EA810002990968C1F8A00002980068D7
:1037E000D0F8A00020F4FE00029A1168126C40EAA2
:1037F0000240C1F8A0000299086C496C009A00FBD5
:103800000120009002980068D0F8B0006FF38F009C
:10381000009940EA810002990968C1F8B000029855
:103820000068D0F8B00020F4FE00029A1168926C93
:1038300040EA0240C1F8B0000299886CC96C009A55
:1038400000FB0120009002980068D0F8AC006FF3F4
:103850008F00009940EA810002990968C1F8AC0024
:103860000299086D496D009A00FB012000900298B2
:103870000068D0F8F0006FF38F00009940EA8100F3
:1038800002990968C1F8F00002980068D0F8F000C9
:1038900020F47C10029A1168926D40EA0240C1F84F
:1038A000F0000298816D009800EB410000900298B2
:1038B0000068D0F8C0006FF38F00009940EA8100E3
:1038C00002990968C1F8C00002980068D0F8C000E9
:1038D00020F47C10029A1168D26D40EA0240C1F8CF
:1038E000C00002980068D0F8C00020F07C50029A16
:1038F0001168126E40EA0260C1F8C00002994A6B7A
:103900004AF60040C4F2000000EB8200C86602994B
:103910008A6BC86E00EB820008670299CA6B086F59
:1039200000EBC200486702990A6C4B6C486F5A431F
:1039300000EB8200886702998A6CCB6C886F5A43CF
:1039400000EB8200C86702990A6D4B6DC86F5A433D
:1039500000EB8200C1F8800002998A6DD1F88000E6
:1039600000EBC200C1F884000299CA6D8B6ED1F8D9
:1039700084005A4300EB8200C1F8880002990A6E65
:103980008B6ED1F888005A4300EB8200C1F890009A
:103990000298D0F890004DF2FD31C4F20001884247
:1039A0000FD3FFE70299D1F89C0040F02000C1F846
:1039B0009C000299032081F8980001208DF80F00E7
:1039C00017E00298C06E0190FFE701980299D1F8C4
:1039D0009010884208D2FFE7019900200860FFE7B5
:1039E000019804300190F0E7FFE700208DF80F0008
:1039F000FFE79DF80F0004B07047000000000000D2
:103A000088B007900691059204930698406848B9DB
:103A1000FFE70698016882680069104340EA814028
:103A2000039009E006980168826800691043084322
:103A300040F080400390FFE70698D0F820C0C168AE
:103A400042698369C06940EA0C601843104340EA48
:103A5000014002900798826ED0F884000499514387
:103A600000EB8100019003980199086001980430EF
:103A7000019002980199086001980430019000209B
:103A80000090FFE700980699CA684DF23611C0F61B
:103A90000301895C88420DD2FFE7059800994058E0
:103AA00001990860019804300190FFE70098043004
:103AB0000090E7E708B0704780B584B04EF600008C
:103AC000C1F6F170006803904EF60400C1F6F17083
:103AD000006802904EF60800C1F6F170006801908F
:103AE0000199039808440390039888B1FFE703986D
:103AF00040F2F801C2F200410091023108220EF0BA
:103B00009BFE00990298123104220EF095FEFFE709
:103B100004B080BD0000000080B5AAB028902791B5
:103B200000208DF89B002798006808B1FFE7FFE7A9
:103B3000FFE7289890F85C00012804D1FFE70220F5
:103B40008DF8A7002DE12899012081F85C00FFE79E
:103B5000FFE70020219022902898006842F200019F
:103B6000C4F20201884206D1FFE742F20010C4F21B
:103B70000200099002E000200990FFE7099878B957
:103B8000FFE72899086E40F020000866FFE72899B3
:103B9000002081F85C00FFE701208DF8A70000E11C
:103BA00009980EF039FF0890289800680EF034FF4D
:103BB000002840F0E280FFE70898002840F0DD8010
:103BC000FFE728980168012042F20002C4F20202D5
:103BD000914207900CD0FFE7289800684DF60071DD
:103BE000CBF6FD710844B0FA80F040090790FFE77A
:103BF0000798C10746F20030C5F6020000291CBF35
:103C000042F20030C4F20200259027980068002894
:103C10005ED0FFE72598806820F4404027994968E6
:103C200008432599886028980168012042F2000223
:103C3000C4F20202914206900CD0FFE72898006877
:103C40004DF60071CBF6FD710844B0FA80F04009E2
:103C50000690FFE70698C10746F20030C5F602005D
:103C600000291CBF42F20030C4F2020042F20031CF
:103C7000C4F20201884212D1FFE742F20000C4F20E
:103C800002000EF0B1FE049042F20010C4F20200F5
:103C90000EF0AAFE014604980843059007E046F29C
:103CA0000000C5F602000EF09FFE0590FFE70598A4
:103CB00068B9FFE72598806840F61F718843279A06
:103CC000116892681143084325998860FFE753E023
:103CD0002599886820F44040886028980168012070
:103CE00042F20002C4F20202914203900CD0FFE7BC
:103CF000289800684DF60071CBF6FD710844B0FAC3
:103D000080F040090390FFE70398C10746F20030B6
:103D1000C5F6020000291CBF42F20030C4F20200C6
:103D200042F20031C4F20201884212D1FFE742F2AE
:103D30000000C4F202000EF057FE019042F20010A3
:103D4000C4F202000EF050FE0146019808430290B2
:103D500007E046F20000C5F602000EF045FE0290B4
:103D6000FFE7029838B9FFE72599886840F61F7287
:103D700090438860FFE7FFE708E02899086E40F06D
:103D80002000086601208DF89B00FFE7FFE72899D7
:103D9000002081F85C00FFE79DF89B008DF8A700EC
:103DA000FFE79DF8A7002AB080BD000000000000DA
:103DB00080B5CEB03A90399100208DF8E30035906F
:103DC0003A9890F84400012801D1FFE70BE03A98B7
:103DD000006846F20001C5F60201884201D1FFE702
:103DE00000E0FFE7FFE73998C0680021C4F2FF71E7
:103DF000884201D0FFE71EE03A98006842F20001D5
:103E0000C4F20201884201D1FFE7FFE73A98006857
:103E100042F20011C4F20201884201D1FFE7FFE73C
:103E20003A98006846F20001C5F60201884201D1C5
:103E3000FFE7FFE7FFE7FFE73A9890F85C0001280B
:103E400005D1FFE702208DF8EF0000F043BE3A995C
:103E5000012081F85C00FFE7FFE73A9800680EF068
:103E6000D3FD002840F02286FFE73998C07800068D
:103E7000002837D4FFE73A98006846F20001C5F6FB
:103E8000020188422DD0FFE739980068000330B95D
:103E9000FFE739980068C0F38460329015E03998E4
:103EA000006890FAA0F04C904C9820B9FFE72020D1
:103EB0008DF8370105E04C98B0FA80F08DF83701A5
:103EC000FFE79DF837013290FFE7329800F01F01BD
:103ED000012000FA01F23A980168C8691043C861EC
:103EE000FFE7FFE73A98006839990A6849680EF0D9
:103EF000CFFD3A9800680EF087FD34903A9800683C
:103F00000EF042FD33903498002840F05A82FFE7CB
:103F10003398002840F05582FFE73A980068399AB4
:103F2000116892680EF02CFE3A98006846F2000183
:103F3000C5F6020188420BD1FFE7399840693A99EA
:103F40000968C96801F0180189088840379038E08D
:103F500041F20000C5F60040006800F07040B0F18A
:103F6000805F0BD1FFE7399840693A990968C968C1
:103F700001F01C014908884031901FE03A98006820
:103F8000C068C00600280BD4FFE7399840693A9909
:103F90000968C96801F01C014908884030900AE0AE
:103FA000399840693A990968C96801F010014908CF
:103FB00088403090FFE730983190FFE73198379094
:103FC000FFE739980069042841D0FFE73A98006874
:103FD00039990A680969379B0EF05AFE3A980068C9
:103FE00046F20001C5F60201884215D1FFE73A9872
:103FF0000068399A1169D2690EF09AFE3A98006801
:10400000399A116992F82020013AB2FA82F25209E3
:1040100052060EF06DFE19E03A980068399A11695F
:1040200092F82120013AB2FA82F25209D2070EF038
:104030009FFE3A980068399A1169127E013AB2FAE5
:1040400082F25209D2020EF00FFEFFE7B8E13A9871
:10405000006846F20001C5F60201884240F0668120
:10406000FFE73A98006800210EF07EFC000348B993
:10407000FFE73A98006800210EF076FCC0F38460F8
:104080002F9018E03A98006800210EF06DFC90FA2D
:10409000A0F04A904A9820B9FFE720208DF82F0120
:1040A00005E04A98B0FA80F08DF82F01FFE79DF8FF
:1040B0002F012F90FFE72F982E903998006800036A
:1040C00030B9FFE739980068C0F384602D9015E09F
:1040D0003998006890FAA0F04890489820B9FFE716
:1040E00020208DF8270105E04898B0FA80F08DF87F
:1040F0002701FFE79DF827012D90FFE72E982D99C6
:10410000884207D1FFE73A980068002211460EF076
:104110004FFEFFE73A98006801210EF025FC0003EE
:1041200048B9FFE73A98006801210EF01DFCC0F382
:1041300084602C9018E03A98006801210EF014FC7D
:1041400090FAA0F04690469820B9FFE720208DF81D
:104150001F0105E04698B0FA80F08DF81F01FFE7D7
:104160009DF81F012C90FFE72C982B903998006840
:10417000000330B9FFE739980068C0F384602A90E3
:1041800015E03998006890FAA0F04490449820B95E
:10419000FFE720208DF8170105E04498B0FA80F081
:1041A0008DF81701FFE79DF817012A90FFE72B987C
:1041B0002A99884207D1FFE73A9800680121002236
:1041C0000EF0F6FDFFE73A98006802210EF0CCFBF6
:1041D000000348B9FFE73A98006802210EF0C4FBDB
:1041E000C0F38460299018E03A98006802210EF02C
:1041F000BBFB90FAA0F04290429820B9FFE7202044
:104200008DF80F0105E04298B0FA80F08DF80F01AB
:10421000FFE79DF80F012990FFE72998289039982A
:104220000068000330B9FFE739980068C0F3846084
:10423000279015E03998006890FAA0F040904098D7
:1042400020B9FFE720208DF8070105E04098B0FA7B
:1042500080F08DF80701FFE79DF807012790FFE741
:1042600028982799884207D1FFE73A9800680221E9
:1042700000220EF09DFDFFE73A98006803210EF042
:1042800073FB000348B9FFE73A98006803210EF07A
:104290006BFBC0F38460269018E03A980068032115
:1042A0000EF062FB90FAA0F03E903E9820B9FFE736
:1042B00020208DF8FF0005E03E98B0FA80F08DF8E0
:1042C000FF00FFE79DF8FF002690FFE72698259066
:1042D00039980068000330B9FFE739980068C0F3E7
:1042E0008460249015E03998006890FAA0F03C9022
:1042F0003C9820B9FFE720208DF8F70005E03C98B6
:10430000B0FA80F08DF8F700FFE79DF8F7002490F1
:10431000FFE725982499884207D1FFE73A9800687B
:10432000032100220EF044FDFFE748E03A980068C0
:10433000006E00F0F84039990968B0EB816F07D141
:10434000FFE73A980168086E20F000400866FFE732
:104350003A980068406E00F0F84039990968B0EB6F
:10436000816F07D1FFE73A980168486E20F000405E
:104370004866FFE73A980068806E00F0F840399987
:104380000968B0EB816F07D1FFE73A980168886E42
:1043900020F000408866FFE73A980068C06E00F0A1
:1043A000F84039990968B0EB816F07D1FFE73A9877
:1043B0000168C86E20F00040C866FFE7FFE7FFE72E
:1043C000FFE73A9800680EF007FB002840F06D8385
:1043D000FFE73A980068399A1168D2680EF0ECFB52
:1043E0003998C0680021C4F2FF71884240F0F98119
:1043F000FFE73A980068239042F20001C4F20201FC
:10440000884240F0A480FFE7399800680221C0F29A
:104410003041884203D1FFE70120229094E039988F
:1044200000680421C0F66001884205D1FFE7402002
:10443000C1F62010219084E0399800680821C0F668
:104440009041884205D1FFE78020C1F6505020906E
:1044500074E0399800681021C1F2C001884206D189
:10446000FFE740F20010C2F280101F9063E039981D
:1044700000682021C1F2F041884206D1FFE740F2F6
:104480000020C2F2B0501E9052E03998006840F20D
:104490000041C2F60021884206D1FFE740F6000045
:1044A000C2F630601D9040E03998006840F6000187
:1044B000C2F63061884206D1FFE741F20000C3F244
:1044C00060201C902EE03998006841F20001C3F290
:1044D0006021884206D1FFE742F20000C3F29060FB
:1044E0001B901CE0399800680021C4F221318842F9
:1044F00005D1FFE70020C4F252701A900CE0399801
:1045000001680022C4F684320020914204BF0020DA
:10451000C4F6B8701A90FFE71A981B90FFE71B9833
:104520001C90FFE71C981D90FFE71D981E90FFE769
:104530001E981F90FFE71F982090FFE7209821907A
:10454000FFE721982290FFE72298199044E13A98DA
:10455000006842F20011C4F20201884240F09480E7
:10456000FFE7399800680221C0F23041884203D148
:10457000FFE70120189084E0399800680421C0F614
:104580006001884205D1FFE74020C1F62010179056
:1045900074E0399800680821C0F69041884205D13E
:1045A000FFE78020C1F65050169064E0399800680B
:1045B0001021C1F2C001884206D1FFE740F200108D
:1045C000C2F28010159053E0399800682021C1F2A2
:1045D000F041884206D1FFE740F20020C2F2B0501D
:1045E000149042E03998006840F20041C2F6002180
:1045F000884206D1FFE740F60000C2F63060139013
:1046000030E03998006840F60001C2F63061884217
:1046100006D1FFE741F20000C3F2602012901EE0D5
:104620003998006841F20001C3F26021884206D146
:10463000FFE742F20000C3F2906011900CE039985D
:1046400001680022C4F684320020914204BF002099
:10465000C4F6B8701190FFE711981290FFE7129816
:104660001390FFE713981490FFE714981590FFE755
:1046700015981690FFE716981790FFE7179818906F
:10468000FFE718981090A4E03A98006846F20001FD
:10469000C5F60201884240F09680FFE7399800682D
:1046A0000221C0F23041884203D1FFE701200F9080
:1046B00086E0399800680421C0F66001884205D17F
:1046C000FFE74020C1F620100E9076E03998006890
:1046D0000821C0F69041884205D1FFE78020C1F64D
:1046E00050500D9066E0399800681021C1F2C00169
:1046F000884206D1FFE740F20010C2F280100C9011
:1047000055E0399800682021C1F2F041884206D175
:10471000FFE740F20020C2F2B0500B9044E039981D
:10472000006840F20041C2F60021884206D1FFE74E
:1047300040F60000C2F630600A9032E03998006816
:1047400040F60001C2F63061884206D1FFE741F22F
:104750000000C3F26020099020E03998006842F21E
:104760000001C3F29061884206D1FFE744F20000E5
:10477000C3F6C02008900EE03998016844F20002A8
:10478000C3F6C0220020914204BF48F20000C3F6E5
:10479000F0600890FFE708980990FFE709980A90F1
:1047A000FFE70A980B90FFE70B980C90FFE70C9837
:1047B0000D90FFE70D980E90FFE70E980F90FFE722
:1047C0000F98079002E000200790FFE707981090ED
:1047D000FFE710981990FFE7239819990EF098F9C0
:1047E000FFE73998C0780006002840F15D81FFE7B7
:1047F0003A980168012042F20002C4F2020291429A
:1048000006900CD0FFE73A9800684DF60071CBF6A1
:10481000FD710844B0FA80F040090690FFE7069861
:10482000C10746F20030C5F6020000291CBF42F263
:104830000030C4F202000EF087F836903A98016812
:104840004FF0010042F20002C4F2020291420590D0
:104850000CD0FFE73A9800684DF60071CBF6FD7179
:104860000844B0FA80F040090590FFE70598C107B9
:1048700046F20030C5F6020000291CBF42F20030AB
:10488000C4F2020042F20031C4F20201884212D1A5
:10489000FFE742F20000C4F202000EF09DF8039020
:1048A00042F20010C4F202000EF096F8014603989E
:1048B0000843049007E046F20000C5F602000EF03F
:1048C0008BF80490FFE70498002840F0E380FFE7AE
:1048D000399800680021CCF25271884255D1FFE727
:1048E0009DF8DA00000600284FD4FFE73A980068E8
:1048F00046F20001C5F60201884245D1FFE73A9829
:104900000168012042F20002C4F2020291420290C8
:104910000CD0FFE73A9800684DF60071CBF6FD71B8
:104920000844B0FA80F040090290FFE70298C107FE
:1049300046F20030C5F6020000291CBF42F20030EA
:10494000C4F20200369941F400010EF07DF940F204
:104950003C00C2F2004000684FEA901042F66351FA
:10496000C0F23E51A0FB01104FEA90114FF002003F
:1049700000EB41003590FFE7359820B1FFE735980F
:1049800001383590F8E7FFE783E0399800680021A7
:10499000CCF22131884238D1FFE79DF8DB00C00717
:1049A00098BBFFE73A98006846F20001C5F602019D
:1049B000884229D1FFE73A980168012042F20002BB
:1049C000C4F20202914201900CD0FFE73A980068CD
:1049D0004DF60071CBF6FD710844B0FA80F0400945
:1049E0000190FFE70198C10746F20030C5F60200CA
:1049F00000291CBF42F20030C4F20200369941F097
:104A000080710EF021F9FFE742E03998006800213B
:104A1000CCF68431884239D1FFE79DF8DA004006B0
:104A2000002833D4FFE73A98006846F20001C5F643
:104A30000201884229D1FFE73A980168012042F239
:104A40000002C4F20202914200900CD0FFE73A98B3
:104A500000684DF60071CBF6FD710844B0FA80F0A5
:104A600040090090FFE70098C10746F20030C5F604
:104A7000020000291CBF42F20030C4F20200369945
:104A800041F480010EF0E0F8FFE700E0FFE7FFE708
:104A9000FFE708E03A99086E40F020000866012020
:104AA0008DF8E300FFE7FFE7FFE708E03A99086EBB
:104AB00040F02000086601208DF8E300FFE7FFE7E3
:104AC0003A99002081F85C00FFE79DF8E3008DF83B
:104AD000EF00FFE79DF8EF004EB080BD0000000042
:104AE00080B584B0039041F6E800C2F20040009027
:104AF00003A929F0CDFA01460098029129F0B8FAED
:104B0000019002A801A932F07FFC40B1FFE702A8A2
:104B100020F0BEFD406803991DF052FCFFE704B091
:104B200080BD00000000000081B0009001B070471F
:104B300081B0009001B0704710B590B00E90002089
:104B40008DF837000A900E9820B9FFE701208DF804
:104B50003F006EE20E98006940B1FFE70E9890F8B2
:104B60002000012801D1FFE7FFE7FFE70E98006E64
:104B700050B9FFE70E9800F063FA0E9900204866DE
:104B80000E9981F85C00FFE70E9800680DF014FFA5
:104B900028B1FFE70E9800680DF09EFEFFE70E9823
:104BA00000680DF029FFE8B9FFE70E9800680DF0E6
:104BB000BBFE40F23C00C2F200400068800942F6B1
:104BC0006351C0F23E51A0FB0101012000EB9110A6
:104BD0000A90FFE70A9820B1FFE70A9801380A9087
:104BE000F8E7FFE70E9800680DF006FF70B9FFE7E1
:104BF0000E99086E40F0100008660E99486E40F05D
:104C00000100486601208DF83700FFE70E98006824
:104C10000DF0FAFE0B900E98006EC006002800F111
:104C2000FA81FFE70B98002840F0F581FFE70E9826
:104C3000006E40F0020020F480700E9908660E9815
:104C400000680DF0C9FE002870D1FFE70E980168DA
:104C5000012042F20002C4F20202914207900CD0FD
:104C6000FFE70E9800684DF60071CBF6FD71084421
:104C7000B0FA80F040090790FFE70798C10746F2B5
:104C80000030C5F6020000291CBF42F20030C4F219
:104C9000020042F20031C4F20201884212D1FFE761
:104CA00042F20000C4F202000DF096FE059042F2BE
:104CB0000010C4F202000DF08FFE01460598084373
:104CC000069007E046F20000C5F602000DF084FEF3
:104CD0000690FFE7069840BBFFE70E9801680120A9
:104CE00042F20002C4F20202914204900CD0FFE7AB
:104CF0000E9800684DF60071CBF6FD710844B0FACD
:104D000080F040090490FFE70498C10746F20030A4
:104D1000C5F6020000291CBF42F20030C4F20200B6
:104D20000E9949680DF080FFFFE7FFE70E980068D5
:104D300046F20001C5F6020188423AD1FFE70E9A19
:104D4000517ED06B40EA41319068D26811430391A3
:104D5000082803D1FFE7002002901DE00E9880682C
:104D60000C2803D1FFE70420019012E00E98806820
:104D70001C2803D1FFE70820009007E00E98816807
:104D80000020182908BF1C200090FFE70098019020
:104D9000FFE701980290FFE70398029901F00C01E8
:104DA00040EA41000E9991F8201040EA01400C9031
:104DB0000CE00E994A7EC86B40EA42308A68104384
:104DC00091F8201040EA01400C90FFE70E9890F80F
:104DD000200001280BD1FFE70E98416A0020CFF692
:104DE000FE7000EB41410C9808430C90FFE70E98D1
:104DF000806A50B1FFE70E99886AC96A00F478703A
:104E000001430C9808430C90FFE70E98006846F2A7
:104E10000001C5F60201884218D1FFE70E9800682C
:104E2000C06844F20701CFF6F07108400C990843BE
:104E30000E990968C8600E980068006920F040600B
:104E40000E9A1168526B104308610DE00E980068CD
:104E5000C0684CF20301CFF6F07108400C9908438A
:104E60000E990968C860FFE70E9800680DF0CCFD48
:104E700009900E9800680DF087FD089009980028A9
:104E800040F0A880FFE70898002840F0A380FFE7E3
:104E90000E98006846F20001C5F60201884209D169
:104EA000FFE70E99087E91F83810800340EA410030
:104EB0000C9006E00E98017E006B40EA81300C9069
:104EC000FFE70E980068C06844F2030188430C991C
:104ED00008430E990968C8600E9890F844000128AC
:104EE00059D1FFE70E98006846F20001C5F60201AD
:104EF000884201D1FFE700E0FFE70E98806A20B109
:104F0000FFE70E98C06A08B9FFE7FFE70E98006850
:104F100046F20001C5F6020188421BD1FFE70E9858
:104F2000006800694FF61E01CFF6004100EA010259
:104F30000E9B1968986CD3F84CE0D3F850C040EA47
:104F40000E0040EA0C005B6D1843104340F0010076
:104F500008611FE00E98006800694FF61E01CFF649
:104F6000004100EA01020E9B19689C6CD3F84CE0EA
:104F7000D3F850C00020CFF6FF7000EB044040EAA9
:104F80000E0040EA0C005B6D1843104340F0010036
:104F90000861FFE706E00E980168086920F001004B
:104FA0000861FFE70E980068006920F070400E9AD3
:104FB0001168126C104308610E98006846F20001F7
:104FC000C5F60201884204D0FFE70E98FDF7F0F91C
:104FD000FFE7FFE70E98006901280CD1FFE70E9864
:104FE0000068006B20F00F000E9A1168D269013A38
:104FF0001043086306E00E980168086B20F00F006C
:105000000863FFE70E98006E40F0010020F00200F8
:105010000E99086608E00E99086E40F010000866C8
:1050200001208DF83700FFE79DF837008DF83F002D
:10503000FFE79DF83F0010B010BD00000000000029
:1050400080B590B00F9000200E900D900C900B90BA
:105050000A900F98006842F20001C4F202018842EF
:1050600077D1FFE7FFE744F2D840C5F602000168B8
:1050700041F020010160006800F0200009900998CB
:10508000FFE7FFE744F2E040C5F60200016841F0A7
:1050900001010160006800F0010008900898FFE736
:1050A000FFE744F2E040C5F60200016841F0040168
:1050B0000160006800F0040007900798FFE72520D2
:1050C0000A90032002900B90002004900C90002086
:1050D000C5F602000AA9039104F082FF029A03991F
:1050E000049810230A930B920C9040F60000C5F62A
:1050F000020004F075FF049943F2C820C2F2004098
:1051000005905822C4F202020260092242608160C6
:10511000C1604FF4806202614FF4006242614FF45B
:10512000005282614FF48072C2610162416202F0FA
:1051300017FC18B1FFE7FEF7DFFAFFE7FFE70F986C
:1051400043F2C821C2F2004181650F988863FFE7EE
:1051500044E00F98006846F20001C5F6020188425B
:105160003BD1FFE7FFE744F2E040C5F602000168EB
:1051700041F080710160006800F080700690069830
:10518000FFE743F24030C2F2004001901021C4F228
:10519000020101607321416000218160C1604FF410
:1051A000806202614FF4006242614FF400528261FA
:1051B000C1610162416202F0D3FB18B1FFE7FEF763
:1051C0009BFAFFE7FFE70F9843F24031C2F200413C
:1051D00081650F988863FFE7FFE7FFE710B080BDA8
:1051E00080B58AB0089008980168012042F2000258
:1051F000C4F20202914204900CD0FFE708980068C4
:105200004DF60071CBF6FD710844B0FA80F040090C
:105210000490FFE70498C10746F20030C5F602008B
:1052200000291CBF42F20030C4F202000DF094FBD2
:105230000590089800680DF0E7FB002840F0CE804C
:10524000FFE7FFE7089890F85C00012804D1FFE72A
:1052500002208DF82700CAE00899012081F85C003F
:10526000FFE7FFE70898FDF753FB8DF81F009DF857
:105270001F00002840F0AA80FFE70898006E40F465
:10528000807040F6016188430899086608980068B4
:1052900042F20011C4F20201884206D1FFE742F255
:1052A0000000C4F20200039003E008980068039035
:1052B000FFE7039808990968884203D0FFE705983B
:1052C00030B9FFE70899086E20F480100866FFE700
:1052D0000898006EC004002806D5FFE70899486EBC
:1052E00020F00600486603E0089900204866FFE7C2
:1052F000089801681C200860FFE70899002081F8E1
:105300005C00FFE70898006842F20011C4F2020155
:10531000884206D1FFE742F20000C4F20200029088
:1053200003E0089800680290FFE70298089909686E
:1053300088420BD0FFE7059840B1FFE705980528A4
:1053400004D0FFE70598092815D1FFE70898006801
:10535000C0688001002809D5FFE70898006E40F476
:10536000805020F4005008990866FFE7089800680C
:105370000DF0AEFB29E00899086E40F48010086635
:105380000898006842F20011C4F20201884206D176
:10539000FFE742F20000C4F20200019003E0089827
:1053A00000680190FFE7019806900698C0688001A8
:1053B000002809D5FFE70898006E40F4805020F4DB
:1053C000005008990866FFE7FFE706E0FFE7089945
:1053D000002081F85C00FFE7FFE703E002208DF882
:1053E0001F00FFE79DF81F008DF82700FFE79DF8DD
:1053F00027000AB080BD000080B588B006900591F6
:10540000049206980168012042F20002C4F20202EE
:10541000914201900CD0FFE7069800684DF60071AC
:10542000CBF6FD710844B0FA80F040090190FFE727
:105430000198C10746F20030C5F6020000291CBFE2
:1054400042F20030C4F202000DF086FA0290069893
:1054500000680DF0D9FA002840F0C680FFE7FFE7AA
:10546000069890F85C00012804D1FFE702208DF82F
:105470001F00C2E00699012081F85C00FFE7FFE70A
:10548000029848B1FFE70298052805D0FFE7029887
:10549000092840F09E80FFE70698FDF739FA8DF85D
:1054A0000F009DF80F00002840F08B80FFE7069862
:1054B000006E40F4807040F60161884306990866EA
:1054C0000698006842F20011C4F20201884206D137
:1054D000FFE742F20000C4F20200009003E00698E9
:1054E00000680090FFE7009806990968884203D099
:1054F000FFE7029830B9FFE70699086E20F48010A4
:105500000866FFE70698006EC004002806D5FFE78E
:105510000699486E20F00600486603E006990020D0
:105520004866FFE70698816D42F22970C0F60000D8
:10553000C8630698816D42F63100C0F60000086429
:105540000698816D42F60100C0F60000C864069816
:1055500001681C200860FFE70699002081F85C00C4
:10556000FFE706980168486840F010004860069818
:10557000006846F20001C5F6020188420CD1FFE73F
:105580000699086891F8381049000DF059FA069804
:1055900000680DF0BDF905E006990868096B0DF08B
:1055A00067FAFFE706980168806D4031059A049B11
:1055B00002F086FE8DF80F00069800680DF088FA5C
:1055C00006E0FFE70699002081F85C00FFE7FFE7AF
:1055D00009E001208DF80F00FFE70699002081F80F
:1055E0005C00FFE7FFE703E002208DF80F00FFE714
:1055F0009DF80F008DF81F00FFE79DF81F0008B011
:1056000080BD00000000000080B584B00290FFE77C
:10561000029890F85C00012804D1FFE702208DF881
:105620000F002DE00299012081F85C00FFE7FFE701
:1056300002980321FCF7ACFF8DF807009DF80700E6
:1056400098B9FFE70298FDF7FFF88DF807009DF87D
:10565000070048B9FFE70298006E40F0010020F40F
:10566000885002990866FFE7FFE7FFE702990020EC
:1056700081F85C00FFE79DF807008DF80F00FFE759
:105680009DF80F0004B080BD80B584B00290FFE7A4
:10569000029890F85C00012804D1FFE702208DF801
:1056A0000F005DE00299012081F85C00FFE7FFE751
:1056B00002980321FCF76CFF8DF807009DF80700A6
:1056C000002842D1FFE702980068C06820F003007C
:1056D00002990968C8600298806D90F83500022828
:1056E00011D1FFE70298806D00F03EF88DF80700B9
:1056F0009DF8070030B1FFE70299086E40F04000C6
:105700000866FFE7FFE702980168486820F010008C
:1057100048609DF8070030B9FFE70298FDF794F85C
:105720008DF8070003E00298FDF78EF8FFE79DF87B
:10573000070048B9FFE70298006E40F0010020F42E
:10574000885002990866FFE7FFE7FFE7029900200B
:1057500081F85C00FFE79DF807008DF80F00FFE778
:105760009DF80F0004B080BD80B58AB0089004F0A9
:105770003BFE0490089828B9FFE701208DF8270028
:1057800000F0AABC089890F8350002280ED0FFE778
:10579000089980204865FFE70899002081F83400C7
:1057A000FFE701208DF8270000F096BC08980168FB
:1057B00001201022C4F202029142039000F0A38063
:1057C000FFE70898016801202822C4F202029142F2
:1057D000039000F09880FFE70898016801204022BC
:1057E000C4F202029142039000F08D80FFE7089816
:1057F000016801205822C4F202029142039000F095
:105800008280FFE70898016801207022C4F202023A
:105810009142039077D0FFE7089801680120882221
:10582000C4F20202914203906DD0FFE7089801682C
:105830000120A022C4F202029142039063D0FFE74C
:10584000089801680120B822C4F202029142039034
:1058500059D0FFE708980168012040F21042C4F2D5
:105860000202914203904ED0FFE7089801680120A0
:1058700040F22842C4F202029142039043D0FFE773
:1058800008980168012040F24042C4F202029142AD
:10589000039038D0FFE708980168012040F2584291
:1058A000C4F20202914203902DD0FFE708980168EC
:1058B000012040F27042C4F202029142039022D0D1
:1058C000FFE708980168012040F28842C4F2020212
:1058D0009142039017D0FFE708980168012040F239
:1058E000A042C4F20202914203900CD0FFE7089854
:1058F00000684FF64831CBF6FD710844B0FA80F0ED
:1059000040090390FFE70398C00780B1FFE70898BC
:105910000168086820F01E0008600898016848695E
:1059200020F08000486108980068059009E0089818
:105930000168086820F00E0008600898006805906B
:10594000FFE70898016801201022C4F20202914288
:10595000029000F00381FFE70898016801202822E7
:10596000C4F202029142029000F0F880FFE708982A
:10597000016801204022C4F202029142029000F02C
:10598000ED80FFE70898016801205822C4F2020266
:105990009142029000F0E280FFE708980168012040
:1059A0007022C4F202029142029000F0D780FFE719
:1059B0000898016801208822C4F2020291420290F4
:1059C00000F0CC80FFE7089801680120A022C4F213
:1059D00002029142029000F0C180FFE7089801683E
:1059E0000120B822C4F202029142029000F0B68077
:1059F000FFE708980168012040F21042C4F2020259
:105A00009142029000F0AA80FFE708980168012007
:105A100040F22842C4F202029142029000F09E80BD
:105A2000FFE708980168012040F24042C4F20202F8
:105A30009142029000F09280FFE7089801680120EF
:105A400040F25842C4F202029142029000F0868075
:105A5000FFE708980168012040F27042C4F2020298
:105A6000914202907AD0FFE708980168012040F245
:105A70008842C4F20202914202906FD0FFE7089878
:105A80000168012040F2A042C4F202029142029059
:105A900064D0FFE708980168012040F2B842C4F2E0
:105AA00002029142029059D0FFE708980168012054
:105AB00045F20842C5F60202914202904ED0FFE73D
:105AC00008980168012045F21C42C5F60202914285
:105AD000029043D0FFE708980168012045F2304268
